:100000000C94F3120C941B130C941B130C94702A75
:100010000C94702A0C94702A0C941B130C941B13D0
:100020000C941B130C941B130C941B130C941B1398
:100030000C941B130C941B130C941B130C941B1388
:100040000C94B0280C941B130C9420290C94FA28BF
:100050000C941B130C941B130C941B130C941B1368
:100060000C9452290C941B1300000000240027005C
:100070002A0000000000250028002B0000000000DE
:1000800023002600290000000404000404000002EC
:100090000200000003030303030300000408002020
:1000A00040000002040000000102040810200000CB
:1000B000000800020100000304000000000000002E
:1000C00000009B00030204040304050C0D00FE085D
:1000D000FE0AFF016102CF04182005004C0B210726
:1000E00091468B53002207347D8BC814230E96C48F
:1000F0009BA86558A25E86256A01240FA53CAB6CBF
:10010000A92899A8254A658B002510963C9B28E9CB
:10011000A225619A4449172D01260E8544AB2C89EE
:1001200092AC322551A404270631FE8A01280BB374
:100130003DAB244AA26E5116290CB33D8B2CCAA2AA
:100140002E5112012A0C7544AB4AE5A02C4D11002A
:100150002B0B7744BCB8360C595C032C07323E0B92
:1001600045012D0615648B412E0621C60A012F0C70
:10017000C43CBBA6AC9495B21A00300A85449B25BA
:10018000F32D5900310985448BB14F8300320B8523
:10019000449B250B6B6D8300330C85448B210D93A1
:1001A000350C0705340E86C43B2D89BA64C930A6C8
:1001B0000900350D85448B2109C3210DC34101364A
:1001C0000D85449B250C8724B3250B00370B8544F4
:1001D0008B41AC85595802380D85449B25D3922517
:1001E000B3250B00390D85449B25B32543A8250B6A
:1001F000003A06614409493B09823E8B21561400AE
:100200003C089544CBAC6B073D08355C8B411D0425
:100210003E0995448BB45B47003F0D95449B25D325
:10022000C248CBA130024014A73CACAD92485A2240
:10023000294A45A9488992651300410E8744BC3874
:100240004DC2242B0D4AAA06420D86C48B4109C516
:1002500061098DC302430C86C49B2109D58EC990C8
:1002600000440D87448C410A93D463324800450A08
:1002700085448B63388CC541460B85448B63382499
:10028000612300470D86C49B2109D5DA2826830007
:10029000480B86C48BD0380CA26300490883448A7B
:1002A00025EA654A08A334AAFEB4004B0D85448BA9
:1002B0004C4A4A9A9644952C4C0985448BB08F83BE
:1002C000004D1087440C6DC8968A5291222952D550
:1002D000004E0D86C48B70532229D14663004F0C0B
:1002E0008744ACAD92BA26593601500C85448B2117
:1002F000C96C83121601510E973CACAD92BA2659C7
:10030000B6030900521086C48B21CA922CC99221CF
:100310006A4BC200530C85449B414CD7301C1400DF
:10032000540987448C4316F70D550A86C48BD08F29
:10033000C99000560F87448C544DB228AB84491A9B
:100340006700571189448D2CD332ADD229694ADA1E
:100350008A5904580D86C48B504CA24C8B5A42319A
:10036000590B87448C34C92A69DC0D5A0A87448C9E
:1003700043DAE761085B09B33E8B21EA4F035C0C6B
:10038000A53C8B300DD3300DD3305D09B33D8BA927
:100390003F0D015E083574AB2CA9055F06153C8B3B
:1003A00041600732FD8A240A610C65449B254B0697
:1003B0004D4B8600620C85448B301C92CC6D5000F6
:1003C000630864C49A216B1C640B8544CBCAA0B932
:1003D000254300650B65449B251B86301D0266097D
:1003E00083449A69883A01670C85349B41734B8634
:1003F000305900680B85448B301C92CC5B00690738
:1004000081448964186A08A2B4992CE9656B0D854A
:10041000448BB09494B424AA64016C07814489830A
:10042000006D0E67448C45892229922229920A6E1A
:100430000965448B21C9BC056F0A65449B25734B34
:100440001600700C85348B21C9DC06250C01710B5C
:1004500085349B41734B86B000720863448A21EA5D
:1004600004730C65449B254BD4244B1600740A83FB
:10047000448A281AA23601750965448BCC5B320484
:10048000760C65448B4C4B4A49164600770E674400
:100490008C289222A5A2748BB204780B65448B2C15
:1004A000A9556A5A00790D85348B4C4B4A4916661A
:1004B00061067A0A65448B41CCDA06017B0BA33CCA
:1004C000AA24AA64515B007C07B1BE8A07017D0B98
:1004D000A33C8A2CAA25514B047E0726DC1BC902AB
:1004E000800F95442BA9920D5136446114290000C8
:1004F00000000C593909F6706B0ACBFFFF20130876
:100500001B658E07014E000A2B647E28190E024ED1
:100510000A17BB3CDE1CCBB11CCBB141CEB11CCB0E
:10052000B11C4B8783004E0B17AB3C8E0735C7724F
:100530004C87921C897220CA811CCBB1144E0D19B4
:10054000BB3C8E0739C7722887943889C2288BB282
:1005500050CCB11C4B014E2A16BA3DCE1CCA91722A
:1005600016466D9998433994433994024E2D16B925
:100570003DCE1C098743966999960D07AD9823399E
:1005800012024E3A19B93D9E284E72241C8E5928EB
:100590006551924549942659A42A004E3B16BB3C0E
:1005A000CE1C4C87839A6339160FE71CCBB1743885
:1005B000084E4816BB3CDE1CCBA11CCAD2B0772823
:1005C0004B4BC321CA81004E4B17BB3CCE1C8C87C2
:1005D0003B94433994433994233A12C5E1304E5F3A
:1005E0001CBB3CDE1CCB8128D2A2251BB264CA4AAC
:1005F000492D2A46619403D930084E661ABB3CCE79
:100600002C0E956150C22CCEA2E120A6611A46495B
:100610009AC531004E8616B93D8E772007621DC8F7
:10062000911CC9911C89931C48014E8B17BB3CDE61
:100630007438488D516D3867C97050B36838E7C851
:100640000A4E8E17BB3C9EE19C6339960E0735C758
:10065000722CC7722C4756004E9114BB3CAE61C839
:100660007978107328C7AAB5E11627004E9218BBF7
:100670003C8E0731C7726C50C3344CC370D8B11C68
:10068000CB8683004E9B1CBB3CBE2807A216A596BA
:10069000445252CA9244C98670C8E161C8E1E1205F
:1006A0004EA418BB3CDE7438E8842CAD2559126684
:1006B0003990E4508E18D5014EBA17BB3CDE1CCBE6
:1006C000B11CCBB11CCBA12447EA40969674404E96
:1006D000CE16BB3CBE7216677116677196268D49A1
:1006E0005B4B1696034ED61DBB3CBE729646492DFB
:1006F0004A2665489A925A94D4A2448C92A831CA48
:1007000006014EE519BA3D7E208AA35A9445B5A844
:100710001CD5A2248CC4A4986562004EEA1DBB3C83
:10072000BE2807B2244BA2244BC248CA9252314B76
:10073000C26A9684515649034EEC1EBB3CAE3A90B9
:10074000254B946449944E6912A5499426519A44C4
:100750006912A549140A4EF61ABB3CBE72528D921C
:100760003419A6AD12A6C93044611AA6611A6600F2
:100770004EFD1CBB3CBE308D92308BB2288B945406
:100780008906AD9495B2521665954C014F181BBB66
:100790003CBEA8186551160F172D4C323553A324B3
:1007A0008D92A81295C4014F1A18BB3CDE1C4A72E8
:1007B000204B4BCAA0E84CC33587C2701814004FB9
:1007C0002018BB3CBE729646C31486CA3028591CFA
:1007D0000D539C55C26A094F461BBB3CBE1C4B06C1
:1007E0002DCA4A59240D4A292B65A541CBB11C4B72
:1007F00086214F5C1BBB3CBE2447EA40344C497504
:100800000A936CC8CA599C0D52166721004F601D8F
:10081000BB3CBE2447EA40344C499A88591225B55E
:1008200028A92551498B8A514D034FDD1CBB3CBE85
:10083000641093AC94950649CC926418A230CDC64E
:1008400028A9255163064FE11DBB3CBE2807B234E1
:1008500019862887A441A963D1A0E5583468515668
:100860001A140050A821BB3C1E314A2A839426D179
:10087000320C4A1626D11025895489862851A24A5D
:10088000D438240050CF1FBB3CBE680893284C8648
:1008900021524A89340C49564A945A254C94AD52F7
:1008A0004A4C00514518BA3DDE703884399265C310
:1008B00020464918C5519A45B5681D51461ABA3D9A
:1008C000BE288B5A4A4994446A944A531245523579
:1008D0008B92309207516518BB3C3E1DCCB11CCBAE
:1008E000A12447EA401667692D07921C0A516C192A
:1008F000BB3C7E20CEE2B01A465994855A8E457193
:10090000180E83982600517317BB3CAEB4160EE741
:100910001C4B87439C43490E646949070451761771
:10092000BB3CBEE270CCE241CEE241CEB2E1A0558A
:100930004B3A9000518516BA3DCE1C4A8783166A01
:10094000A1662A2961A2233A220F518C1EBB3C9E2C
:100950002119A24AD412B544C97050A2246A895AF6
:10096000A296A8254AA2490151FA16BB3CDE382BB3
:1009700065A5AC349CD33014433114C3E10151FB61
:1009800016BB3CDE1C8B87738EA5C3418DB35256BC
:10099000CA4AC305520618BB3CBE729616D32C0732
:1009A00092641892308BB334AC46A20652071BBB3C
:1009B0003CAE1C8B86298CA2291AC2A81855A2927B
:1009C00094455935AC290052201BBB3C8E6553BA67
:1009D000285D942EC32151BA285D942E4A9BD2A63D
:1009E000580652301DBB3C8E43568ED2A41625C3EA
:1009F000A0D4C22419A4240B932CCE866C48075291
:100A0000361DBB3CBE382926C9B02452980C8352EF
:100A10000B9364583A259DB2A4A2150752371DBB0B
:100A20003C9E614BC22C1996A62C296549322C1587
:100A3000A545E9A2F4946C6136524D1BBA3DAE3027
:100A40008DB2E190834352AA9486A454290D49A9FA
:100A50001625CA02526A1ABB3CBEDA7050A2301A7E
:100A600092A8258A86246AD3E1E11A469B0452A102
:100A700018BB3CBE1C1B462D8C921CCA11DB141DDE
:100A800086384BC3CC0652A81CBB3C7E201CA21C43
:100A9000CBA1E1A044C5A81825516958B230C9D2EC
:100AA0004801534317BB3CEE6DD0B11C4B87839A72
:100AB000633996633996632900535517BB3CBE3A98
:100AC00090A4C3292B0DA7AC349CD3E1A0E6580A0F
:100AD000535A1DBB3C9E30AA0C831286CB3055A2C4
:100AE000D23055A268382451D694A512005361180B
:100AF000BB3CCE1C1BE41C8B87839863498E443916
:100B000090C5391603537019BA3DBE781AC64CCC3D
:100B1000062513333193926C881225CCA11053BB58
:100B200018BB3CDE1CCB81430EE4583A1CD41C2A73
:100B300087D9708B130053CC1AAB3C8E0731895A7E
:100B4000A22C29855912664996642D521AC5610056
:100B500053D119BB3CAEC6288BB27838843936C81D
:100B6000599A54B3344BA4481453D61FBB3C8E73CC
:100B7000940C4A9464C990644954898628896A25EA
:100B8000291AA4244DA2540C53E31399458E871CB3
:100B9000D0011DD0011DD081071D0853EA19BA3DAF
:100BA000AE61C8D22CCDD22CCD86214BC32C4CA308
:100BB0001CD0910053EF18AB3C8E071D0987288C81
:100BC0008A517188C2A88EE5588E4C0053F018B92E
:100BD0003DCE1CC881AC9A0C77241986288DD2286A
:100BE0008D86210153F71ABB3CAE6108D370187291
:100BF0007838883934EC588EE54094231A0053F83D
:100C00001ABA3C9EE10E0D971C4A862909A3248C32
:100C10009261CAA11C8A1700540C19BA3C8E071D98
:100C200051864547A421924A52491A22A9A4233A3F
:100C300020540E1ABB3C7E601BE41C1B4E3996638D
:100C4000C9B02561548CA261C9C20454271ABB3CA7
:100C5000CE6159A2A453D229E994B40CCB122775C2
:100C60002C0DD37418548C1ABB3C4E79C7B2E1904A
:100C70004459299A4A4A29E9246551960D590E5436
:100C8000CD1BBB3C7E2087C2651894AA5259942E76
:100C90004A97214996300DD33014552E19BB3CAEDE
:100CA0002C1E4E593A5C6AF13068E5E114677136E2
:100CB0000C0A0055461DBB3CDE743868C5E15489FA
:100CC0002A59120DA7244BA26450A2244BA258010A
:100CD000566820BB3C9E2119A24AD412454332C417
:100CE00051341CB4DAA00C4A94442D5134244302EC
:100CF00056DE18BA3D8E071DD1116988A492549210
:100D000086482AE9C8F08E0456E019BB3C8E8FA1B4
:100D1000182AC39088A1186A4926659192263A3408
:100D20003C56FD19BA3D8E071D5186450BB550192D
:100D3000162D89B42819DE91E12056FE19BA3D8E90
:100D400007299506C5144D9A541A926808332D1434
:100D5000B3E120572818BA3DCE1C4A874396235941
:100D6000A8559241AB6669960E830057301EBB3C76
:100D7000AE308D92344A2A43926CD192254A2D4A44
:100D80006A51B229A52D8C0701573E1CBB3CAE64AD
:100D9000D84A5929199462964C59A918292D529666
:100DA000664916690157401DBB3CAE300DD3301B60
:100DB00096344A86A89246491A25E990645A120F39
:100DC0008300575B1ABB3CAE1C8B062D47861C4A22
:100DD00086210AD32C9642AD380C621A57831ABB6F
:100DE0003CAE2C0ED36838E8489495B2A66C8912B4
:100DF00031C9B178180257DF1BBB3CAE544B932866
:100E0000190E626529259D924513234DA949899C98
:100E10000558991FBB3C9E348C8621894A83D21485
:100E20000D439263D13024433A254B98340E43004E
:100E300058F316BB3CDE7438A83970D0D1E11DCA16
:100E400006398B8AD13C590719BB3CBE1C1B462D69
:100E50008C762451C5E1312A0E4318158721025999
:100E60000D1BBB3CAE1C1B2E6A940C439886C39092
:100E7000E6D03044521D11076908591A18B93DCE01
:100E80001C18B4304AA258553269D0C244896269EC
:100E90001001592718BB3CDE1CCBB17438A8399619
:100EA00043498ED4812C2DE98000592918BB3C9EE2
:100EB000E19C6339960E073587921CA903595AD2D3
:100EC0000101593419BB3CBE2847CA590E44391692
:100ED0000E073987921CC8D2920E04593918BB3CB0
:100EE000DE7838E740544D6AC341CDA12407B2B43F
:100EF000A4030259791EBB3CAE308D926C489229F6
:100F0000499628594A49A7A4B24549AA8449A33A0F
:100F100008597D1BBB3CAE1CCB8643982559986471
:100F2000A561488AA158C94A59944E00598220BBEC
:100F30003CAE1CCB914119A4A41625B5244AB22479
:100F40004AB248CA226950A224D331005B5018BB70
:100F50003CAE61C8A11CCAA11C4B87839A63399619
:100F6000237528065B5719BB3CDE78382439220DDF
:100F70004A0EE4503A1CD41CCBB11C59015B5819E1
:100F8000BB3CCE78386839940C5B9A8959329CC244
:100F9000344CC334DA005B6619BA3D9E282B25D148
:100FA00070D09168D8911C0987439A433930025B0D
:100FB0009A1BBB3CDE78382439A223D930C83910BB
:100FC000E5403484519C54B361085B9D1ABB3CCE10
:100FD0001C4C8777281A861CC8B11C38E440922321
:100FE00051341C045B9E19BB3CEE743824652D897A
:100FF000B23A10A5C321CEA12407B26C155BA2188A
:10100000BA3DCE74384869346C499465B2240D8772
:10101000286C1C26005BA41ABB3CDE7478879461A4
:1010200048C21CCAD241C9811C38E4403A1C045B46
:10103000B619BB3CDE747887946148B224ABB446E1
:10104000A2B2A451492BAA005BBD1ABB3CDE747846
:10105000CAA2643866E9308451312A26DDA26C08C0
:1010600087005BF91BBB3C7E241AC2743885591279
:10107000968A599225619684519AE450065C0F181D
:10108000BB3CDE1CCBB11C888A511665A52C14AB69
:1010900039528762005C311EBB3CBEDAB0D4912865
:1010A000190E4994D486A41A2559A2F4A22452A553
:1010B000A464025C401EBB3CAE61D0E26C18B41C60
:1010C0001B4E3910254354892AD110255149071444
:1010D000005C4F19BB3CAEE19403D1704AC22C2A8C
:1010E0000EA7C6E1D416655131025C5E1FBB3C9E63
:1010F000E19403D170CA812819B6304D86214AA2E5
:101100004A321C922C539221115E161DBB3CAE3408
:101110004CA3411B925A94D4A2A4322C6DCA92457E
:1011200059291BA4AC005E2619BB3CAEA6E12035B4
:1011300046A5E131548621891AA36294E8400A5EEB
:10114000551CBB3C8E07AD3A0C611A0E439864D116
:1011500070D092281A0E52639448005E7417BB3CFC
:10116000AE1C1B2E61351E06AD9C85C341CEB11C45
:101170000B015E7B1DBB3CAE1C8B86290792284D64
:10118000A27490A31C889234C9C26148EA50045EDC
:101190008F18BB3CDE78382439960C5B25AC0E8763
:1011A000248C8AD5301B015E9418BB3CDE1C4C8716
:1011B0004392634D49D4256A2B4771160D83005E17
:1011C000971ABB3CEE7838E558391BB272326C493D
:1011D000982561140D4B1626005EA619BB3CDE78DF
:1011E00038245171383546439863C9B045B5504CE1
:1011F000A6055F0017BB3C9EE198C5599CC55936B2
:101200001CB46A9886D52CCE005F0F1BBB3CEE2425
:1012100047A21C0887839C0E490E443990C55994F7
:1012200069C9100B5F1519BA3D8E5B9AA5593268D2
:10123000490E1CB2344BB3348B92304B035F5316C0
:10124000B93DCE5A25AA25A5E18EE448320C3A9242
:1012500023C3215F551BBB3CAE61C8B17018722C13
:101260001A0E522D4C9458499528D23251055F9749
:101270001DBB3CAE68D0A22CCA06254AB2D220E9DA
:10128000486998D2301986A83194005FAE1FBB3CE4
:10129000AEA44D694A0625878624592AA212254BF9
:1012A00029296549A2644927AD005FC31ABB3CDE0A
:1012B0001CCC812807A21C48A3244ECA493191C2E4
:1012C000348C070960001CBB3CAE6418A2344AC2CF
:1012D0002CD1A4A4A2342551256A4CC3344CC30C90
:1012E00060271DBB3CAE308D922C516A49320C4AAE
:1012F000294BB4341AB4300DD3304D862160F31F1E
:10130000BB3CAE68D0A22C190E599445CBA054B466
:10131000D2202659944449C7441B2400620F1DBBA8
:101320003CEE241B92284DD26818A2A40E44C52876
:101330000993284C2351A9430262101BBB3CEE24A5
:1013400047A2683824611AA64312B5442DB5A8A552
:101350009424622662111CBB3CCEA43615A37038BF
:1013600068510E285126259192C591943425512C0F
:1013700062341CBB3C9E412966D1F0D271504A496F
:10138000A741A92559340C495365D40262401DBBBD
:101390003C3E51D1B6301D92344A06254AA26848D7
:1013A000A262548C6A952C4C00624B17BB3CEE2118
:1013B0001A742C1ECE39960E0735C7722C8754002E
:1013C00062531ABB3CAE1C8B868316A66192856263
:1013D000A646491AA6611A6D1300626B1DBB3CAE8E
:1013E0001C8B86831AE54094A49134283AA0E440EB
:1013F00094035134DC110062841BBB3CAE300DB34E
:101400004151B228892A51AA458998B486D52C5CC5
:10141000540062A41BBB3CAE302D0DC93015A36235
:10142000A40C8B9426510E443990C4430E62A51D22
:10143000BB3CAE68D0A22C19B65222263AA00C8B27
:1014400094744A6A51314A2A931662D21CBB3CAE4C
:101450006898AAC30E44839668999245D2A094B224
:10146000520E44E9340C63091CBB3CAE302D0D0711
:10147000A91255A25419162D4A4A52168A59122DEC
:101480009A00636E1DBB3CAE68988AC31046D1308B
:101490002552A80C8BD4120D53B2296D49691063E3
:1014A000891CBB3CAE300D87531A0D5AA265CA2069
:1014B0004959521AB4304D8643980163A51CBB3C70
:1014C000AE304D868392B584C930445AA80C8392BD
:1014D0004559A48495E41663CF1EBB3CAE2C0993FA
:1014E000E12025618E45C3A4941229899468982A25
:1014F000516938850163D21FBB3CAE548BB6214B7A
:10150000936188C254A958A2484994444AA2962893
:101510001A926108641C1DBB3CAE4A9A28C930442B
:101520002D4A22255169B88859920C5B54CCB44598
:101530001A64441EBB3CAE6418A22C4A0665C84A15
:1015400059920C9954528641E9A9566919B42864F4
:10155000781EBB3CAE2C0993E1202561346851967E
:1015600029833265D9700AB3244B32451364AD2008
:10157000BB3CAE744A866C48DA9261882AB5291A57
:1015800092618892A86518A224AA28C31064CE1A72
:10159000BB3C8E4B9A44C34B9494B2A5A20D431C02
:1015A0000F87341D0EA20A65361EBB3CBE2807A25B
:1015B000308A8629C992488992A825919248C94AB9
:1015C000991A159330657020BB3C8E282926523617
:1015D0002C436489122929252DC3524BA22452B2CF
:1015E000344B925B00658717BB3CCE1C4C878356FF
:1015F000CEE22C07921CA94339625B0765B01DBB84
:101600003CBE741814AD922651362C43564986A51B
:10161000982551D2539B92250065B917BB3CCE1C2F
:101620004C878398633936A8611A56B3380A370055
:1016300065E01ABB3C9EE19C6339960E0731C99167
:101640003A10E540944559B60E0165F61CBB3C7E48
:10165000241AC2281A4E615489A2214AA296A818B7
:1016600015A321CC9109662F19BB3CBE610DD36136
:101670000DD3618787835407A2214BAAD930046612
:101680003E1CBB3CAE6108D37018C2341C8638497E
:10169000A324CA9252963427E17010667A1FBA3D8D
:1016A0009E1C1A9241C9A26190226948A2245286C6
:1016B000214BB361C8D26C181200670918BB3CCE2D
:1016C00078386839368C62960C53311DD6300DD37C
:1016D0004C02672C18BB3CDE1C4B8783B80349398E
:1016E000A946B5966890D21C4B01673A1CBB3CAE2C
:1016F0001C8B86302A0D5318D5962853A44AD41231
:1017000015932C89C401676518BB3CDE78B845D5B4
:10171000A4361CD41CDA81A41A95B44C4D01677F01
:101720001EBB3CAE548BB66107A21C880669C92259
:10173000654A4A89986461122599A205679C1BBB7A
:101740003CAE6108A3E2308451711872201D0EE294
:101750000E24D5A8A4650268071CBB3CAE68D072F5
:1017600064D0916418A230DC4229E9944495A831F0
:10177000CD3400680F1DBB3CAE629445C99043C98F
:1017800030243AB403493428752CC7722C198600CA
:1017900068371BBB3CAE5A4B341CA4305C0649CCAA
:1017A00092304D86210AD3300D3300683C1CBB3C7F
:1017B000AE2CCE866448B24A63714A32455BA24180
:1017C0008BB252561A1400684C19BB3CDE41CE81D4
:1017D000439886C310A6E130E4403A1CA4262D139A
:1017E00068631DBB3CAE308D926858942C4CA3614D
:1017F00099132555A261CA812807A2681869FD1EA0
:10180000BB3CAE2C0993E1A529198628E9345CA4D8
:101810002C290D5A9495062DCA12006B4C1EBB3C08
:101820008E4B0E44D9120D4ADB302871162D599477
:10183000949264899234C9B2316B7B18BB3C8E0799
:101840002DC7CA4BD4529212A95207A2388B8AD103
:101850003C6BD218BB3CDE7438A8F1704E8783D441
:10186000341C942CCA8643AC016C601EBB3C9EB4F5
:101870009464611226953159B244A94549454BA655
:101880002C89922C4CC2416CA11BBB3C9E6C08A3C2
:10189000C6288BB22D8792618B6A611289621665A8
:1018A00089286CD519BB3C9EB49823831287690E96
:1018B0001CA23013D3AC140D4A2D0C6CE81ABB3C9F
:1018C0009E300EB36C18925A9CA5611A0D8A1AA606
:1018D000611A46C3106D4F1BBB3C9E288D8AD29067
:1018E0003426C5A4A9256A99929EB24407921C1079
:1018F0006D6A1CBB3C9E304E86250BA36818C52C18
:1019000019B6A43655A2921625B548136D881BBB8F
:101910003C9EA897E63049862D09A368988ADBB0DB
:10192000646192854996096DD81DBB3C9E2C07A227
:10193000613425435251B228198628CBA6A4D3A0DE
:10194000D491B2026E381FBB3C9E280BA3681BB417
:10195000DA920C599494B224198628895AA24A54CE
:10196000B228006E9024BB3C9E6818A2248BB264FF
:1019700050A224CB94414A6A51920C4394959244CC
:101980004A4A49A2444A006ED11EBB3C9E6CD0A27A
:101990002C5E8A4929190649C9A46850B4523648B0
:1019A00059298B1400706B19BB3CDE1CCB81282B92
:1019B00015A324CC7228C9913A90A5251D10706FEB
:1019C00018BB3CBE1C4B86A5294BB44A1815D33016
:1019D0000D2B5953590270B918BB3CDE1CCBB141D9
:1019E000CE8143988669380C3921892A5954713639
:1019F0001BBB3CAE2CCE92506A1A06454A93D628A1
:101A000009A32CAA2AA54A1615724719BB3CAE3069
:101A10000DD3301D4E399663C310A6619AC5510E81
:101A20004400725919BB3C9EE19003719686E170A7
:101A30008875A40E4471968D39A40172691EBB3C51
:101A4000AE2C4CB2308986835251B2A4242515A9FC
:101A5000A294DA4A95A892290072791EBB3CAE3056
:101A60004BA24119B24A9825C9304462A60C831290
:101A700015B3244CC36C0273A91BBB3CEE21197433
:101A800024C7726819A62C09B3245C4A62528D924D
:101A90004C1473B01EBB3CDE411992AC94D4A2A48A
:101AA00032246D51528B929A944462528D924C1B07
:101AB00074061ABB3CCEE1A96518A2246A89A2E18A
:101AC000294CA341D33235070E01751F16BB3CEEDE
:101AD0005A9CC5C325ACE6C02107722CC7D2E110C1
:101AE000752818BA3C9EE19255B2CA70C92A596548
:101AF000B864952C13333112753515BA3DCE1C4A96
:101B0000874B56192E5925AB0CD7B0751075C51AD1
:101B1000BB3CEE78382439341CA23054864129B5B8
:101B2000744A34254AB56C767B1BBB3C9E21895A8E
:101B30008A499484C5615074241BD6301DE6281B45
:101B40000E02767E18AB3C8E073587726418C2345D
:101B50004CC36108D3300D872102768419BA3DAE9B
:101B60002CAC0DC93089523A289954924A523AA85D
:101B700052A60076D81FBB3CDE1C19D6244AA324EB
:101B80001B0E59128559120E8396444996444932C8
:101B90001C04770B1ABB3C9EE11C0F831C0F072D06
:101BA0000C87214BC2281AD6301D2600771F17BA82
:101BB0003DCE74388439702C0E49980C61693864B4
:101BC000516801774019BB3CBEE270CE81431C0FC7
:101BD000072D0C07254B92212AA6C30477ED1FBBC6
:101BE0003C9E6818921C5B06A59495B26448062D2D
:101BF000C7A22C4AA2248BA36C180278011EBB3CFE
:101C0000DE4119C4AC9495A2218912691892284D1D
:101C1000A24149863489DA1105786C1DBB3CDEE1AE
:101C200090A5D13055A2E430284D49655812295C61
:101C30008A49A403D200789F1FBB3CDEA4321CA4B7
:101C40004A2D4AA625559261A985C930284BA2255F
:101C5000521266510078C11FBB3CDE2C19A2244CE5
:101C600086216A5BA2643125C9304449545AA22CAA
:101C7000B1848B12793A15AB3C9EE1CE341CD41C56
:101C8000888A511665A1585401793E1ABB3C9EB40E
:101C9000980D529CA5D1A069A112654998866998B2
:101CA00026C31079BB1BBB3CDE7438484963544CD7
:101CB0001A872107E2E1D412258312C50A0079CDE3
:101CC0001BBB3C3E291BD36878895AA2482925CAE8
:101CD0003028611AA6611A660079FB1BBB3CBEDA8C
:101CE000412A0E4B948516254CA221D132254A6AF1
:101CF00069186D007A0B1DBB3CBE6450A6AC9425E0
:101D000043326839A60C921285D2A014D3304D8686
:101D1000217A971EBA3DDE7038286152CA92E1904E
:101D20004459940CD3944491548992681814007BBC
:101D3000141BBB3C9E301D924169AA0D4934E4D866
:101D4000100E39362C838EA5E9307B5220BB3C9E89
:101D5000341C9441AA64C32907A26450A21C88922F
:101D60004189922C8992418962057B7E1BBB3C9EF6
:101D7000301D9241692A6669126B9232285263942F
:101D8000C459381C027B8020BB3C9E301D92614AA6
:101D9000A2301AA4248DA221895AA26848A29628AA
:101DA0001A922856007B971CBB3C9E211994522501
:101DB0001986300D87214CC36148B36C38684531B2
:101DC000037BB11FBB3CAE301D9221899252258B03
:101DD0008663545B862849A4248A86302A464302B7
:101DE0007C981DBB3CAE304B4AE1364461364869B5
:101DF000342C4BA824A2128551344CC5007CFB1610
:101E0000B93DEEE19C45C39C0359321CB328A9455A
:101E100095480B7D2019BB3C9EE19C03871C48879D
:101E20008318A5C31087D1708B4A36017D2217BB5A
:101E30003CDE7838A7C3531645838E64D970CE4AEA
:101E4000259B007EBF1DBB3CAE2C09B3A83844D1F6
:101E5000B80D52B286513244491C95A424993401DC
:101E60007ECF1DBB3CAE68D0D22C2A2651124D59D4
:101E7000254DB24119B21C4BB54C1A86007EDC1EB2
:101E8000BB3CAE2CCE86282B2589122D519A255984
:101E9000A40DCB2067999225DAA0007EDD1CBB3C07
:101EA000AE2CCE86288BB224192E5212B5D486437E
:101EB000926361A48407017EDF1EBB3CAE304D8679
:101EC0002109D3A4961C86284B1A936888921C6912
:101ED00052A264CA067F161EBB3CAE304D862189D5
:101EE000D224190E4A8E24C390444965784C9A96A0
:101EF000CA140A7F511ABA3D8E071D91B264695106
:101F0000B2482A2989926C49A2853A220F800C187E
:101F1000BB3C8E07358772E021895AA296A8256AB4
:101F2000895AA29678803314BA3D8E87286C1CC6D5
:101F3000E230360E071DCAA108804A20BB3C8E2124
:101F40000A93441A922E43D2A274199216A58B9228
:101F50002CC92025536392450080541EBB3C8E5BE8
:101F60009444499624C3B28549160E87A41626596F
:101F70003628D5240BD50080FD1FBB3CAEB054499C
:101F80008645872A833224593C28A52CD106254A28
:101F9000B2244A22650881111EBB3C9E2D4CC22CE6
:101FA000498665479A9216A5B294928AD2A3940C58
:101FB00043A2840181EA10B73EAE70185475B80E82
:101FC0005775B806828216BB3CBEDA70D0EA9461BF
:101FD00090B3388BB33899732C0682F918BB3CBE8A
:101FE000DA70D08AC32DAA26519AD486839A63398F
:101FF000960283DC1ABB3CBEDA70D0EAD8342C617E
:1020000092A5496D386849352A69990084DD1BBB62
:102010003CBEDA70D08A499426D11025CD61369C19
:102020002A514B940C070185CF1FBB3CCE281B0EB9
:102030006294548643D269199428C9922119965EF4
:10204000946450AA8900884C1ABB3CAE68907228F0
:102050008773281986448D92344CC3344CC36C0268
:10206000886819BB3CDE7838E7C02107D2E120261A
:10207000511825A19629A55414898119BB3C8E07B6
:1020800031498753258A866B3C1CB4EA9223433836
:102090002A0089C61CBB3C9E6CD0A22C1992C6A4F7
:1020A0002D4A4A4B4F492D4C33A925AA640389C8B0
:1020B0001CBB3CBE284DA24169CA92341B86300D20
:1020C000A362548C2A99920DD92089E31FBB3CAEA0
:1020D0006C5086A852CA8621929244C98643D294F3
:1020E0000D87A4294B4A35290289E61EBB3C9E3840
:1020F0001BB2A8180DCAB07419968A52190E5994B9
:10210000D412A53644CA128BA118BB3C9EB4986366
:1021100039F010A6611AA649946A69986319008B70
:10212000B01CBB3C9E1C8C061DCBB164CEA2418B67
:102130007220CA81448C9430CA06018BBA1BBB3C06
:102140009EB49843490E64C99246599455C24C4D69
:102150006A919445D9208BBE1ABB3C9E6C08A33A69
:1021600010C5D9B063C9B045594BA8A559926E02A4
:102170008BC41CBB3C9E6818A23007A26A5219D3BC
:102180006418A2304DA2544BC31CCB008BDD1BBB8B
:102190003C9E588B762C5B86210AD3308D062DCA47
:1021A00032252B0D7296008BF419BB3C9EAC4B0E66
:1021B0000C72964C5969D02A61D22825A596301BFD
:1021C0008C371ABB3CCE280E4B599469611487E1B9
:1021D00030284A9864613AAC61048D2D1EBB3C8E58
:1021E0004109B3244C2AC392884A2952DA949EA208
:1021F00045292751AA650A008D341EBB3C8E418BB0
:10220000B252521B925A94D4A2A4322C6D4A5B94BF
:10221000554AC39664018D771EBB3CBE1C8B8668F5
:10222000D0C234190E619426519624439694864563
:1022300007B261088F6C1BBB3CAE301B92414A4316
:102240006518942C1C92418BB3A534A6C534028F1B
:102250006F1CBB3C9E300DC34119943053A2A43275
:102260004869982EA52D09A3AC92068F7D1DBB3C15
:10227000BEE2A014B368780AB36189925A120D5273
:102280001A26C390245A94058F911EBB3CAE6C480D
:1022900006252A0E918E948683126599922D89B215
:1022A0004552326C71028FC71BBB3C9E384CC364D5
:1022B0001872249A8A5912A6611A865A9203D93042
:1022C000048FD41DBB3C9E1C90A2218C726C38697B
:1022D00051A516159328C9222DA903D930048FD8EA
:1022E0001BBB3C9E6818A234AC63D9A6645112553E
:1022F000A2C634ACE440360C018FD91BBB3C9E30E7
:102300000E73E0210DA3629684D52C09132D4A7219
:10231000201B86008FDB1ABB3C9E2C0AA36232CCAA
:10232000513415875363544CB24A1865C310900159
:102330001BBB3C9EAC4B180D3A928D69320C5198E8
:102340006649186551A26AC31090021CBB3C9E5896
:102350004B8634CC8187308D062DCA4A8316655151
:102360009203D9300490531CBB3C9EAC4B980C4359
:102370000E64D3A0455969D0A2AC3448490E64C359
:102380001090A31FBB3C8ECB1055A296CAB0D4A20E
:10239000A41625D13024518B12554A5992654A060C
:1023A00090AE1DBB3CAE6C90B26C58A2A453D2D37D
:1023B000A0444937A56D582A5A12E5400890E821F3
:1023C000BB3CBE6C784AB224AA444932DCA1241A30
:1023D0009428C99228C9122519945296640090FD38
:1023E00020BB3CBE68500625CA9296E158C9862497
:1023F0004AA4245286246A51A221A9454906914D36
:102400001EBB3C8E41199472521E56A5320C891285
:1024100066493828619664C39269C92091771EBBCA
:102420003C8E41AB44499644C341AAD4224519B6D7
:102430007850862DC98665D8922C91CC17BB3C9ECE
:10244000E19495B2D270CA4A596938C7C3391D0E92
:102450000294AE1FBB3C9E1CCB0669889272920C04
:102460005292458332285156CA925226D59261081B
:1024700094FE1BBB3C9E348C9241596A69120D0735
:10248000A96938488D51718993680895011DBB3C35
:10249000AE24EA524AC36550C22C5ADAA2A43224AE
:1024A0006D5152939230D104952E1FBB3C9E64CA4D
:1024B000B26151B2444B868394D486532D4986250C
:1024C000CA3245CA92681095ED1BBB3C9E6C98724F
:1024D00040CDD44C198644D4B424936A4A96899A40
:1024E0000E0C96321EBB3C8E210AA3AC920CC74A3E
:1024F0003624514BD4A24495529664611265120061
:10250000964421BB3C8E21AA442DA52CD18621497D
:10251000B4244A3A2591A2D4925296845912460A7A
:102520000096641EBB3C8E212B55A224CA12295949
:1025300094308B8653964D495B144959A46A009692
:10254000F618BB3C9EE19C0E4F49299C3549CBA413
:1025500061C8A11CD8310D976218BA3D8E873047EB
:10256000E2E12095A421924AD21049A5E11D0997E4
:10257000F31ABB3CDE783866399084C341878721E3
:102580004CC36108D370182200987519BB3C8E07A4
:1025900035070E611A46C5A8181523258EE25092FC
:1025A000130098911FBB3CBE68508A59320C4A29CF
:1025B0001B06A516255D9416A522554A6192685AF8
:1025C000009F201EBA3D8E2119921C4886644872D5
:1025D0002019EEA0A4444945B2244ACBA04C0100E6
:1025E00000002B2C373C11241FBECFEFD8E0DEBFFC
:1025F000CDBF11E0A0E0B1E0E8E9FCE702C0059042
:102600000D92AC3DB107D9F726E0ACEDB1E001C0C9
:102610001D92A13FB207E1F712E1C2EFD2E104C07F
:102620002197FE010E94E73CC13FD107C9F70E94F4
:102630008E2D0C94403E0C940000662329F06A30E5
:1026400019F0862F90E008958FEF9FEF0895B0E086
:10265000A0E0EDE2F3E10C94BA3CEC01842F87702A
:10266000E1E0F0E0082E01C0EE0F0A94EAF73E2FF9
:102670007E019AE7E90EF11CD7019C9110E092309F
:1026800018F41E2F913009F150E0487FE9ADFAAD02
:10269000C880D980D60150969C91949F6001959FE7
:1026A000D00C11246C0D7D2D711DDF01A60FB71FFD
:1026B000011111C08C91812B83278D932150D1F76B
:1026C000CDB7DEB7E8E00C94D63C30E0DDCF110F9B
:1026D000330F2223A9F39C91912B93279C938F5F17
:1026E000877021508111F3CF9DADA90FB11DF70166
:1026F0009081923028F4913009F031E011E0E9CF77
:1027000031E0E7CF80E0089580E00895CF93DF9334
:1027100080938504C0E8D4E0E881F9810190F081DC
:10272000E02D89E494E00995E881F9810280F38144
:10273000E02D89E494E00995DF91CF91089580938D
:10274000C3040895A5E0B0E0E8EAF3E10C94BA3CD4
:10275000C090840400918504E0914904F0914A04FA
:10276000D188102FF12CE12CE0914904F0914A041A
:10277000808920918204309183041C821D838B8385
:1027800048E0849FC00111248E9DA0018F9D500DB3
:102790009E9D500D1124240F351F3A832983E0910B
:1027A0004D04F0914E049E012F5F3F4F41E06FE0DA
:1027B00089E494E009951F5F812F801B8C1528F414
:1027C0008FEFE81AF80A1D1578F22596E8E00C94C8
:1027D000D63C089508959B01DC011896ED91FC917B
:1027E00041E067E109950895833081F028F4813054
:1027F00099F08230A9F008958730A9F08830C9F0A7
:102800008430B1F4809180008F7D03C0809180007E
:102810008F7780938000089584B58F7784BD089565
:1028200084B58F7DFBCF8091B0008F778093B0000F
:1028300008958091B0008F7DF9CFCF93DF93282F3B
:1028400030E0F901E255FF4F8491F901E656FF4F60
:10285000D491F901EA57FF4FC491CC2399F081112B
:10286000C3DFEC2FF0E0EE0FFF1FE458FF4FA59100
:10287000B491EC91ED2381E090E009F480E0DF91E8
:10288000CF91089580E090E0FACF1F93CF93DF932C
:10289000282F30E0F901E255FF4F8491F901E65607
:1028A000FF4FD491F901EA57FF4FC491CC23A1F017
:1028B000162F811199DFEC2FF0E0EE0FFF1FEE587D
:1028C000FF4FA591B4918FB7F894EC91111108C006
:1028D000D095DE23DC938FBFDF91CF911F910895B8
:1028E000DE2BF8CFCF93DF9390E0FC01E656FF4F4D
:1028F00024918A579F4FFC0184918823C9F090E06E
:10290000880F991FFC01E859FF4FA591B491FC0174
:10291000EE58FF4FC591D49161110DC09FB7F89447
:102920008C91209582238C938881282328839FBFB4
:10293000DF91CF910895623051F49FB7F8943C91A4
:10294000822F809583238C93E8812E2BEFCF8FB736
:10295000F894EC912E2B2C938FBFEACF3FB7F894CD
:102960008091AE029091AF02A091B002B091B102FD
:1029700026B5A89B05C02F3F19F00196A11DB11DDA
:102980003FBFBA2FA92F982F8827BC01CD01620F16
:10299000711D811D911D42E0660F771F881F991FD1
:1029A0004A95D1F708958F929F92AF92BF92CF929E
:1029B000DF92EF92FF926B017C01D0DF4B015C0153
:1029C000C114D104E104F104B1F0C8DF6819790938
:1029D0008A099B09683E73408105910588F321E0CF
:1029E000C21AD108E108F10888EE880E83E0981E2B
:1029F000A11CB11CE5CFFF90EF90DF90CF90BF906E
:102A0000AF909F908F9008952FB7F8946091AA028D
:102A10007091AB028091AC029091AD022FBF0895EE
:102A20000F931F93CF93DF938C01C62F642FCC326B
:102A3000E0F4CA3208F03DC0C83259F1C93209F495
:102A40003EC080E0C034B0F1CF73F801EC0FF11D4F
:102A5000878D8F3F71F1C031D0F0EFDE21E0892BFF
:102A600009F420E0F801228F24C0CD3269F148F347
:102A700084EB8C0F823028F7CF73C00FD12FD11D7C
:102A80008F8D41112FC061E02DDF60E08F8DFDDE65
:102A900010C0015E1F4FD0E0F80181918F018F3F80
:102AA00029F061E0D03108F062E01CDFDF5FD63151
:102AB00099F781E0DF91CF911F910F91089570E018
:102AC00090E080E070DFF5CF85E090E0433010F0DB
:102AD00082E090E0880F991F880F991F0597019752
:102AE000F1F7E7CF62E0FEDEE4CFB0E0A0E0EBE795
:102AF000F5E10C94B83C6C017B018B01040F151FB0
:102B0000EB015E01AE18BF08C017D10759F06991FB
:102B1000D601ED91FC910190F081E02DC60109955F
:102B2000892B79F7C501CDB7DEB7EAE00C94D43C28
:102B3000FC01538D448D252F30E0842F90E0821BC3
:102B4000930B541710F0CF96089501970895FC0148
:102B5000918D828D981761F0A28DAE0FBF2FB11DA0
:102B60005D968C91928D9F5F9F73928F90E00895F8
:102B70008FEF9FEF0895FC01918D828D981731F0B2
:102B8000828DE80FF11D858D90E008958FEF9FEF06
:102B90000895FC01918D228D892F90E0805C9F4FDC
:102BA000821B91098F739927089584E993E0F1DFDF
:102BB00021E0892B09F420E0822F089580E090E045
:102BC000892B21F0F2DF81110E9400000895FC01A1
:102BD000A48DA80FB92FB11DA35ABF4F2C91848D7E
:102BE00090E001968F739927848FA689B7892C93DB
:102BF000A089B1898C91837080648C93938D848D2E
:102C0000981306C00288F389E02D80818F7D808330
:102C10000895EF92FF920F931F93CF93DF93EC01F0
:102C200081E0888F9B8D8C8D981318C0E889F98975
:102C3000808185FF13C09FB7F894EE89FF89608378
:102C4000E889F98980818370806480839FBF81E0F7
:102C500090E0CDB7DEB7E6E00C94D83CF62E0B8DB5
:102C600010E00F5F1F4F0F731127E02E8C8D8E1118
:102C70000BC00FB607FCFACFE889F989808185FF80
:102C8000F5CFCE01A4DFF2CFEB8DEC0FFD2FF11DC0
:102C9000E35AFF4FF0829FB7F8940B8FEA89FB89C4
:102CA00080818062D2CFCF93DF93EC01888D88231F
:102CB000B1F0AA89BB89E889F9898C9185FD03C0A7
:102CC000808186FD0CC00FB607FCF7CF8C9185FF85
:102CD000F2CF808185FFEDCFCE0179DFEACFDF91A2
:102CE000CF91089520918602260F3327331F21327A
:102CF0003105ECF420910203FC0190E080E02430E7
:102D000069F082E00895A09186022191AC014A59B0
:102D10005D4FA40FB52FB11D2C930196861798F324
:102D200080918602680F6093860280E0089581E0BA
:102D300008951092020381E08093E1021092DC0278
:102D400061E082E1A2DD61E083E19FDDE9EBF0E09B
:102D500080818E7F808380818D7F808388E48093D3
:102D6000B80085E48093BC0008951092BB021092D5
:102D7000BA021092B7021092B602DBDF89EE93E13D
:102D80009093B5028093B4028AEE93E19093B302DC
:102D90008093B2020895CF93DF9391E09093650200
:102DA0008823A1F0C091B800D091BA008091BC00F6
:102DB0008A7B8093BC0060E082E167DD60E083E1B4
:102DC00064DDB7DFD093BA00C093B800DF91CF9134
:102DD0000895CF92DF92EF92FF920F931F93CF93BC
:102DE000C82F813208F090C0B9DD6B017C01809161
:102DF0000203811166C081E0809302038093E102A7
:102E00009FEF9093E0021092DF029C0F9093DE02FE
:102E10008093DD028091DD0288648093DD028091E1
:102E2000DC02813009F072C01092DC0297DD6B0188
:102E30007C018091DD028093BB008091040390911E
:102E40000503A0910603B0910703892B8A2B8B2BD6
:102E500099F084DD0091040310910503209106038D
:102E6000309107036C197D098E099F090617170712
:102E70002807390708F445C08091BC0083FDD9CFED
:102E800085EC8093BC006ADD6B017C0180910203BC
:102E9000813009F43DC08091DF028C1710F4C0919D
:102EA000DF02ACEBB2E0E2EEF2E080E08C1351C066
:102EB0008C2FCF911F910F91FF90EF90DF90CF90CB
:102EC00008958091040390910503A0910603B091A9
:102ED0000703892B8A2B8B2B09F489CF3FDD0091C7
:102EE00004031091050320910603309107036C1928
:102EF0007D098E099F09061717072807390708F06B
:102F000076CF8091030347DFC0E0D2CF85EEB9CF03
:102F10008091040390910503A0910603B0910703EB
:102F2000892B8A2B8B2B09F4B1CF18DD0091040378
:102F30001091050320910603309107036C197D0958
:102F40008E099F09061717072807390708F09ECF33
:102F5000D8CF9D9191938F5FA9CF0895E091BB0247
:102F60008091BA02E81730F4F0E0EE51FD4F808115
:102F700090E008958FEF9FEF08959091BB028091AC
:102F8000BA022FEF3FEF981748F4E92FF0E0EE5127
:102F9000FD4F208130E09F5F9093BB02C9010895EF
:102FA0008091BA029091BB02891B990B0895B0E001
:102FB000A0E0EDEDF7E10C94BA3C7C01CB018A0175
:102FC0002091B902222389F0EB016B01C40ED51EBA
:102FD000CC15DD0561F06991D701ED91FC9101906F
:102FE000F081E02DC7010995F3CF642F7BDEC80186
:102FF000CDB7DEB7E8E00C94D63CA1E0B0E0E3E06A
:10300000F8E10C94C03C69832091B9022223F9F0C5
:103010002091B602203258F021E030E0FC013383E9
:10302000228390E080E02196E2E00C94DC3C8091E9
:10303000B702E82FF0E0EB5BFD4F998190838F5F43
:103040008093B7028093B60281E090E0ECCF61E01C
:10305000CE01019647DEF8CFB0E0A0E0E2E3F8E170
:103060000C94BA3CD091B60281E0D13208F096C0FF
:10307000C091B80273DC6B017C0180910203811165
:1030800069C082E08093020381E08093E1028FEFC8
:103090008093E0021092DF02D093DE02A5E4B2E05A
:1030A000ECEBF2E080E0D81384C01092DD02809156
:1030B000DD02CC0FC82BC093DD028091DC02813091
:1030C00009F07BC01092DC0249DC6B017C0180912D
:1030D000DD028093BB008091040390910503A091D1
:1030E0000603B0910703892B8A2B8B2B99F036DCD2
:1030F000009104031091050320910603309107030A
:103100006C197D098E099F090617170728073907CB
:1031100008F440C08091BC0083FDD9CF85EC80933A
:10312000BC001CDC6B017C0180910203823009F43D
:1031300046C08091E0028F3F09F462C08091E002B6
:10314000803209F45FC08091E002803309F45CC0F2
:1031500084E024C08091040390910503A0910603AC
:10316000B0910703892B8A2B8B2B09F486CFF6DBD2
:103170000091040310910503209106033091070389
:103180006C197D098E099F0906171707280739074B
:1031900008F073CF80910303FEDD85E01092B70243
:1031A0001092B6021092B902CDB7DEB7E8E00C94E7
:1031B000D63C9D9191938F5F76CF85EEB0CF809175
:1031C000040390910503A0910603B0910703892B96
:1031D0008A2B8B2B09F4A8CFC1DB0091040310913B
:1031E000050320910603309107036C197D098E09B0
:1031F0009F09061717072807390708F095CFCACF88
:1032000080E0CCCF82E0CACF83E0C8CFDC011A9641
:10321000ED91FC9130E020E009950895DC011696CF
:10322000ED91FC9130E020E040E069E109950895DE
:10323000DC011696ED91FC9130E020E040E068E181
:10324000099508959A01DC011696ED91FC91462F9F
:1032500067E109950895A1E0B0E0E1E3F9E10C949C
:10326000BC3C7C018B01D8016C91673101F130F4D9
:10327000653178F42196E6E00C94D83C6A3108F187
:103280006E3FC1F7F8014181498369E2C701BEDFA2
:103290000BC0F80141814983D7011696ED91FC914D
:1032A00030E020E0C70109950E5F1F4FDCCFF80129
:1032B00081818983AE014F5F5F4F61E0C701C2DF4B
:1032C000F3CF0F5F1F4FD7011696ED91FC9130E0C1
:1032D00020E040E0C7010995C6CF462FDC011696D5
:1032E000ED91FC9130E020E066E109950895462FCC
:1032F000DC011696ED91FC9130E020E065E1099546
:103300000895EF92FF920F931F93CF93DF93EC01F9
:10331000042F79016D3009F43FC050F46B3099F1FE
:10332000693009F48AC06A3009F456C080E03EC0B2
:103330006E3009F447C06F3099F77ADFF7011381D7
:10334000110F110F110F6C89160F60E4CE01CFDF42
:10335000612F62956F706061CE01C9DF612F6F7060
:10336000CE01BBDFF7016481606BCE01B6DFF701F0
:10337000408151816281660F660F660FCE0162DF68
:103380000150A9F726C064E271E0442311F06FE117
:1033900071E0CE0160DF09C041110DC068E171E04C
:1033A0005ADFE881F98182898C8B81E0CDB7DEB765
:1033B000E6E00C94D83C61E171E04DDFE881F981F1
:1033C0008389F2CF35DF61E8CE0191DF602FCE0136
:1033D00084DFCE0123DFE9CFEA85FB8530E020E002
:1033E00040E068E2CE010995EE81FF8130E020E007
:1033F00040E064E1CE01099541E06BE4CE0106DFD7
:10340000E881F981448169E2CE0100DF40E06BE4AC
:10341000CE01FCDEE881F981448169E2CE01F6DE6D
:1034200041E06BE4CE01F2DEE881F981458169E299
:10343000CE01ECDE69E271E0ACCF8EE591E09983DC
:1034400088831C8AB2CFDC011896ED91FC9130E0A4
:1034500020E040E069E109950895DC011896ED91BE
:10346000FC9130E020E040E068E109950895A1E09A
:10347000B0E0EDE3FAE10C94C03C6983BE016F5FFC
:103480007F4FA9D92196E2E00C94DC3CEF92FF92A9
:103490001F93CF93DF93EC01162F7A01DEDF60E4F8
:1034A000CE01E5DFE885F9859701412F67E1CE017F
:1034B0000995CE01C8DFDF91CF911F91FF90EF906A
:1034C0000895EF92FF921F93CF93DF93EC01142F97
:1034D0007901663159F138F4643109F442C065313B
:1034E00071F080E01DC0683189F120F16931C9F7C0
:1034F00080914402882351F1CE01A5DF27C080913D
:103500004402882311F0CE019EDFCE01A6DF60E0E9
:10351000CE01ADDF612FCE01AADF81E080934402AE
:10352000DF91CF911F91FF90EF900895642F9FDF5F
:1035300081E0F6CF80914402882311F0CE0183DF31
:10354000A701193130F4612FCE01A0DF109244029F
:10355000EFCF68E1CE019ADF185188E1E80EF11C47
:10356000EFCF8E898F3F11F488E78E8BE885F98540
:103570009701412F64E1CE010995D2CFFC0166236A
:10358000D9F16A30C9F1818D811125C06C3F48F0B5
:1035900085E0818F617070E0738B628B2EEF3FEF5F
:1035A00029C0683F20F084E0818F6370F4CF603FD2
:1035B00020F083E0818F6770EECF603E20F082E0E4
:1035C000818F6F70E8CF262F30E0603C98F081E06B
:1035D000818F6F71E0CF8150818F2289338996E08E
:1035E000220F331F9A95E1F76F73262B338B228BB3
:1035F0008111D4CFC90108952FEF3FEFFBCF0F9377
:10360000DC01FC01ED5BFF4F9081941B492F31974A
:103610009081961B692F01110EC04150621BDF96ED
:103620008C91DF97481BD596ED91FC91D697CD01F3
:1036300009950F910895013091F76150421BEFCF2A
:103640000F93DC01DF963C91DF97431BD596ED91FC
:10365000FC9109950F910895CF93DF93FC01A08110
:10366000B18183AD982F990F990F990F96AF50960E
:103670009C915097903208F09FE1990F990F990F04
:1036800095AF24AD922F990F990F990F97AF51963F
:103690003C915197682F620F7727771F36171706CF
:1036A00014F4832F821BEF01C05CDF4F98832196B7
:1036B000880F880F880F890F8883219680EF888371
:1036C00054968D919C915597813F910508F488837C
:1036D000ED5BFF4F56968C918083DF91CF910895DB
:1036E000BBCF0895B9CF0F93FC01EA5BFF4F308148
:1036F00031965081451730F4301738F0041728F010
:1037000080E013C03017D0F3FBCFFC01EC5BFF4F20
:1037100030818B5B9F4FFC018081681740F481E012
:10372000321718F081E0261758F70F9108953217D5
:10373000C8F3E6CFB0E0A0E0E0EAFBE10C94BB3CCC
:10374000EC01FC01E55BFF4F10813297E080319680
:10375000F0803297D080012F2E2D4F2D6D2DC3DF9D
:10376000FE01EC58FF4F811106C01082CDB7DEB7C5
:10377000E7E00C94D73C81E08083FE01EC5BFF4FD7
:1037800080818D1508F4D082FE01EB5BFF4F8081B4
:10379000E81608F4E082FE01EA5BFF4F80818F1596
:1037A00008F4F082C95BDF4F88811817F8F6188398
:1037B000DDCFFC01EC5BFF4F10823196DC01AE5B8C
:1037C000BF4F2C9120833196108211962C91129725
:1037D0003C91231718F0422F431B4083FC01E95B07
:1037E000FF4FDC01A05CBF4F3C91231B2083A2CF85
:1037F0000895FC01EC5BFF4F10823196DC01AE5B5B
:10380000BF4F2C912083319612972C9120833196B3
:1038100011962C9120838ECF08950F93DC01802F79
:10382000FD01EC58FF4F90819923E9F12223D9F152
:10383000223020F0023079F56F5F621B082F017093
:10384000FD0180FD32C0EA5BFF4F8081481758F1CF
:1038500031968081481738F5329790813197808171
:10386000260F2617F0F46917D8F42FEF290F8217C7
:10387000D0F4681708F4682F291708F4922F961BC4
:10388000D796ED91FC91D8970480F581E02D292FF2
:10389000CD01099508C0033089F64F5F421BCECF9A
:1038A000682F691720F30F910895EC5BFF4F80811B
:1038B0006817C8F3319680816817A8F7329690810F
:1038C00031978081240F241778F4491760F42FEF83
:1038D000290F821740F7481708F4482F291708F4D2
:1038E000922F941BCDCF482F4917E8F6F2CF0F93B4
:1038F00090918F04691798F090919004691778F46B
:1039000090918D04891758F090918E04891738F49E
:10391000462F682F00E021E089E494E07EDF0F91DC
:103920000895213039F020F0223031F0840F0895CD
:10393000860F0895841B0895861B0895213039F061
:1039400020F0223031F0861B0895840F0895860FF1
:103950000895841B0895B0E0A0E0E1EBFCE10C9435
:10396000B33C5C01162F642EEC01C05BDF4FDC80A2
:10397000ED804C018AE7880E911CFE80FD18C12E57
:10398000F11608F4CF2C5B800C85202F4E2D6D2D69
:103990008A81C7DF782E202F4E2D6D2D852DCEDF0D
:1039A000482F662069F08A85F40180832C2D672DCD
:1039B000C50133DF1F1548F01F19E394D12CDDCF6B
:1039C00089858111F7CF8B85EFCF1D0D1C83ED828B
:1039D000CDB7DEB7EFE00C94CF3CDC0118964C91EC
:1039E0001897ED91FC911197249130E0042E02C0BC
:1039F000359527950A94E2F7842F860F883068F072
:103A000031961196FC93EE93E49198E0941B01C0DB
:103A1000EE0F9A95EAF72E2B885018968C938FEF1D
:103A20009FEF01C0880F6A95EAF780958223089579
:103A3000FC01E60FF11D849190E0982F88273196C4
:103A4000E4918E0F911D0895B0E0A0E0EAE2FDE15F
:103A50000C94B43CEC01062F142F7901FC01E45ABC
:103A6000FF4F80818130D9F180F1823009F441C06B
:103A7000833009F448C0FE01EE5AFF4F00833196AF
:103A8000108337978081918147962FEFE216F104DA
:103A900011F008F0D4C0E1E6EE16F10408F43DC0E0
:103AA000FE01E059FF4F20813181820F931F9C015D
:103AB0002F5F3F4FF9014491411137C0712C872D81
:103AC000CDB7DEB7EEE00C94D03CFE01E25BFF4FD9
:103AD0000190F081E02DCE010995180FCCCFFE01A9
:103AE000E25BFF4F0190F081E02DCE010995081BAC
:103AF000C2CFFE01E25BFF4F0190F081E02DCE01CD
:103B00000995181BB8CFFE01E25BFF4F0190F081D1
:103B1000E02DCE010995080FAECFF1E4EF16F104C8
:103B200030F2FE01E259FF4FBECFFC0144914E1529
:103B30001F0409F07FC00296009709F4BFCF7E01F1
:103B4000F0E5EF0EF11CF7019183808310867196EA
:103B50006081C70142DFF701868372966081C701E9
:103B60003CDFA82EF70187836E01FAE7CF0ED11C48
:103B7000F6019081F701928781E0911180E0F701D1
:103B80008387FE01ED59FF4FB0806B2DC70125DF04
:103B9000882EFE01EC59FF4F1081612FC7011DDFF8
:103BA000982EFE01EB59FF4F0081602FC70115DFF2
:103BB000015041E050E09A0101C0220F0A95EAF756
:103BC000782E721AF701068110160CF078CFBA948D
:103BD000CA0101C0880FBA94EAF7881AB4849A0C13
:103BE000115001C0440F1A95EAF7F42FF9199F2ECE
:103BF0002B2D4F2F682DF701828193DE182FF701AF
:103C000082832B2D492D682D838198DEF7018383D4
:103C1000F1E0BF1609F474C0BF1608F43DC022E0FD
:103C2000B21609F473C093E0B91609F47AC0082FEC
:103C3000212F36C0F9012491820F911D38CFFE014A
:103C4000EE58FF4F00811181080F191F680160E0D5
:103C5000C601EEDE080F191F62E0C601E9DEF4E0DE
:103C6000CF0ED11C8E159F0590F3F801849190E042
:103C7000982F88273196E4918E2B009709F41ECF58
:103C8000E816F90619F4C801039656CFF8013296E2
:103C9000E4910E0F111DE9CF202F210F082F0A0DDF
:103CA000482F612FCE011FDD882309F408CFF701CB
:103CB000148215828E01015A1F4F4E01F0E68F0EBD
:103CC000911CF8016081C70188DE682EF4016081D3
:103CD000C70183DEB82E40E0662DCE013CDE41E018
:103CE0006B2DCE0138DE61E0C70177DE8111F3CFA5
:103CF000F70185818A152CF38285F6018083DFCE5A
:103D0000BA1821E0210F080F1B0DCACF91E0392FFF
:103D1000301B21E0210F9A1901E0080F890F130FC2
:103D2000BFCF212F2A0D982F901B01E0080F81E0B3
:103D3000890FB6CFFF920F931F93CF93DF93C82FB6
:103D4000D62F109262048A01F12CF80161918F0143
:103D5000E0914B04F0914C0489E494E009958F3F85
:103D60009807E9F08E3F2FEF920779F39C014D2FD2
:103D70006C2F89E494E068DE9091A504913049F0BD
:103D800030F0923041F0933041F0F80EDECFC80FA2
:103D9000FCCFD80FFACFC81BF8CFD81BF6CF8F2D8A
:103DA000CDB7DEB7E5E00C94D93CCF93DF93EC01BF
:103DB000962F683181F1B901993130F4943191F045
:103DC000973159F080E006C0993109F446C090322D
:103DD000C9F781E0DF91CF91089550E088E093E04A
:103DE000E6D8F7CF8C859D85AE85BF85892B8A2B3C
:103DF0008B2B71F4E881F981A585B0E020EA36E8E3
:103E000041E050E00E94A63C6C877D878E879F87AB
:103E10000E94B516DECF2C853D854E855F8560E01E
:103E200074E284EF90E00E94523C20513109410934
:103E3000510956954795379527952093B8008E8957
:103E400090E09595879591E09093B9028093B802A0
:103E50001092B7021092B602BCCF88E093E0FCD873
:103E6000B8CF8F929F92AF92BF92CF92DF92EF9294
:103E7000FF921F93CF93DF93FC014A01AA24BB2436
:103E8000C82DC32ED42EE52EFF241C2DD22F8085C5
:103E9000882361F0889E40011124C92D8C9D60010A
:103EA00011241D2D829FD0011124DB2FA685E184D2
:103EB000F2849385A91322C0CB01880F991F680F44
:103EC000791F6E0D7F1DA385A60FB72FB11DCC9353
:103ED000A485A60FB72FB11D1C938585680F711D92
:103EE000FB01D083DF91CF911F91FF90EF90DF9086
:103EF000CF90BF90AF909F908F900895660F771FDF
:103F0000660F771F6E0D7F1D252F332744275527FA
:103F1000882349F090E0829F7001839FF00C929F6C
:103F2000F00C11242F2DA60FB72FB11D2C93CBCF42
:103F3000A9E0B0E0EEE9FFE10C94BA3C8C01DC01B1
:103F400019968D919C91892B09F473C00E94AE142F
:103F5000F801C784D088E188F2886C157D058E054C
:103F60009F0520F46787708B818B928BF801C78443
:103F7000D088E188F2886C197D098E099F096C321E
:103F800071408105910510F3F894D80114968D9134
:103F90009C9115979A8389831996ED91FC917F01E5
:103FA000BFEFEB1AFB0A80818987F80190810388B3
:103FB000F489E02DD80155968C91992309F43DC0E0
:103FC0009081982B98879081809589238F838F810A
:103FD0008C8388E08B8358856F8149853B812C8158
:103FE00089819A81D701508347FD252F3A952083F7
:103FF000262F39F0441F00C000006083000000C07D
:10400000F2CF38E04D9160830000019761F7D8014D
:104010005496FC93EE93539749873B832C839A8362
:10402000898378940E94AE14F8016787708B818B26
:10403000928B2996E8E00C94D63C9081982B988737
:104040009081809589238F838F818E8388E08D83F3
:1040500058856F8149853D812E8189819A81D7015B
:10406000508347FD252F00C000C0208300C000C042
:1040700000C000C000C060830000262F3A9541F0C8
:10408000441F000000C000C000C000C000C0E8CF56
:1040900038E04D9100C0608300C0019709F7D80156
:1040A0005496FC93EE93539749873D832E83B7CF65
:1040B00020914202309143022817390771F4909100
:1040C000410280914002981741F0E0914102F0E0F6
:1040D000E050FE4F808190E008958FEF9FEF0895AC
:1040E000EF92FF920F931F93CF93DF93DC015C96C7
:1040F000ED90FC905D97E114F10469F481E090E0AB
:1041000013969C938E93129790E080E0CDB7DEB724
:10411000E6E00C94D83C5196ED91FC915297509664
:104120008C915097982F90950FB75E962C915E9733
:10413000122F127021FD6095F8942081112319F13E
:10414000282B2083E7012197F1F728E0462F50E044
:10415000308160FF1AC0382B3083E7012197F1F7D7
:10416000BA0175956795215089F7112381F08081F7
:10417000892380830FBF5C968D919C910197F1F705
:1041800081E090E0C3CF2923DCCF3923E5CF9081B4
:10419000892BEFCF20914202309143022817390733
:1041A00061F4809140022091410290E0805C9F4F39
:1041B000821B91098F739927089590E080E00895FC
:1041C000209142023091430228173907B9F49091A7
:1041D000410280914002981789F0E0914102F0E09D
:1041E000E050FE4F80812091410230E02F5F3F4F31
:1041F0002F7333272093410290E008958FEF9FEFB4
:1042000008951F93CF93DF93EC01162F60E0812F69
:104210000E9472148E8D81FD04C061E0812F0E9486
:1042200045141C87812F90E0FC01E656FF4FE49176
:10423000ED87FC01EA57FF4FE491F0E0EE0FFF1F1E
:10424000E458FF4F859194919F878E87DF91CF919E
:104250001F9108951F93CF93DF93EC01162F6E8D5E
:104260006695617081E06827812F0E94451461E0A6
:10427000812F0E947214812F90E0FC01E656FF4FBF
:10428000E491E88BFC01EA57FF4FE491F0E0EE0F78
:10429000FF1FEE58FF4F859194919A8B898BDF9188
:1042A000CF911F910895E0914202F0914302E817E7
:1042B000F90769F4A389B4899C918589809589233C
:1042C0008C93109243021092420281E0089580E0A4
:1042D0000895CF93DF93EC018A8D9B8D892BF9F0A4
:1042E00080914202909143028C179D07C1F0009784
:1042F00009F0D9DF8E8D8E7F8E8F10924002109242
:104300004102D0934302C0934202EB89FC89808131
:104310009D89892B808381E0DF91CF91089580E092
:10432000FBCFACE0B0E0E7E9F1E20C94BC3C182F25
:104330008091D2059091D3050097A9F1042F7B01BC
:10434000C8DFFE0133968AE0DF011D928A95E9F706
:104350008AEA89831A830B83810F800F002349F037
:10436000F70190819C83890F013019F091819D8321
:10437000890F10E0FE01E00FF11F84838091D205C8
:104380009091D3050C5F1F4FDC01ED91FC910280F1
:10439000F381E02DA801BE016F5F7F4F099521E0F9
:1043A0000817190709F020E0822F2C96E6E00C94FC
:1043B000D83CFC01680F791FCA01E617F70789F09E
:1043C0002191AC01522728E0CA01880F991F57FF9D
:1043D00004C031E2832730E193272150AC01A1F7DB
:1043E000ECCF0895FC0160817181828193810895F1
:1043F000E2E8F1E09191891731F091E0EC38F907AA
:10440000C9F780E0089581E00895B0E0A0E0EBE016
:10441000F2E20C94BA3C6C01EB017B01E40EF51E58
:1044200010E000E0CE15DF0561F06991D601ED9155
:10443000FC910190F081E02DC6010995080F191F2C
:10444000F1CFC801CDB7DEB7E8E00C94D63C0F93AE
:104450001F93CF93DF93EC018C010C5F1F4FFC0186
:10446000E058FF4F0190F081E02DC80109958E3F83
:104470002FEF920768F4FE01ED57FF4FCE57DF4F45
:104480009C0140816881C801DFDA9881890F8883A7
:1044900081E090E0DF91CF911F910F9108950895F1
:1044A00090E080E00895E0914904F0914A04208969
:1044B0008091840438E0839FC0011124289FA001CB
:1044C000299F500D112470E060E08091820490914A
:1044D00083040C94393E08958091C4048111E3DF74
:1044E00080E00C9486130895CF930E94A213C0918C
:1044F000850480918404C80FE0914904F0914A0436
:104500008189C81770F0E0914D04F0914E0430E0BD
:1045100020E040E060E189E494E0099580E0CF91FB
:1045200008958091C4048111BEDF8C2F0E948613F0
:1045300081E0F5CFB0E0A0E0E0EAF2E20C94B03C1C
:10454000CBDF2EEB822E2AE1922E32EC632E30E06E
:10455000732EF12CE12C8CECC82E80E0D82E9DEC33
:10456000A92E90E0B92E8091C9059091CA05E81650
:10457000F90608F0B9C197012F5F3F4FC7018F5C63
:104580009B4FFC01E856FF4F4081413009F0D2C0FB
:1045900027533B4FF9010081FC01E656FF4F508045
:1045A000E701259684569F4FFC0110818091950468
:1045B00090919604825C904009F48FC070929604AA
:1045C00060929504E2ECF0E084918093A604E3EC21
:1045D000F0E084918093A704E4ECF0E08491809370
:1045E000A804E5ECF0E084918093A904E6ECF0E007
:1045F00084918093AA04E7ECF0E084918093AB046B
:10460000E8ECF0E084918093AC04E9ECF0E0849174
:104610008093AD04EAECF0E084918093AE04EBEC7F
:10462000F0E084918093AF04F60184918093B0040C
:10463000F50184918093B104EEECF0E0E491E09315
:10464000B204EFECF0E0E491E093B304E0EDF0E0CD
:10465000E491E093B404E1EDF0E0E491E093B5047B
:10466000E2EDF0E0E491E093B60461E182EC90E0E9
:10467000DFD99093B8048093B70463E182EC90E0B3
:10468000D7D99093BA048093B90465E182EC90E0A5
:10469000CFD99093BC048093BB04809195049091F2
:1046A0009604892BD1F08091B3048093BF0440918C
:1046B000B4044093C0049091BE04992371F09130EA
:1046C000F9F49091B504891714F49093BF04809184
:1046D000B604841714F48093C00481E00E949F13F1
:1046E00090924C0480924B04AE0147535B4F652D72
:1046F000802F20DBF6E0EF0EF11CE10EF11C33CF32
:104700003091B0042091B204082E000C990B622F56
:10471000022E000C770B630F711D37FD7A958617FB
:1047200097071CF4320F3093BF042417B4F620937C
:10473000C004D3CF4230D1F427533B4FF901C0819D
:1047400086569F4FFC01D081F7013396E753FB4F0C
:1047500024E0E20EF11C81E09081911101C080E023
:104760000E949F136D2F8C2FC2D8FDCE433009F0CD
:104770004FC027533B4FF901C081FC01E656FF4F64
:1047800010813196D08184569F4FFC015080F701F3
:104790003596E753FB4F26E0E20EF11C81E0908155
:1047A000911101C080E00E949F130C2F0D1BDC179C
:1047B00010F00D2F0C1B511648F4412E451804150E
:1047C000E8F0DC1708F499C0212C10C0452C411AE0
:1047D000041508F09AC0802F042D482E8D2FD52D5A
:1047E000582E8C2FC12F182F22242394302E36942C
:1047F000151508F094C05524539493C0802F042DB0
:10480000482E812F1D2FD82F8C2FC52D582EECCF41
:10481000443009F069C027533B4FF901D081FC01B6
:10482000E656FF4FC08131964080319630808356E6
:104830009F4FFC010081F7013696E753FB4F27E0BD
:10484000E20EF11C81E09081911101C080E00E9494
:104850009F131C2F130D5D2E540C0023C1F0012F4C
:10486000252D4C2F6D2F89E494E00E94731B882323
:1048700009F479CE1C1709F476CE00E0242D4C2FD4
:104880006D2F89E494E00E940D1CCF5FF3CF012FC0
:10489000252D4C2F6D2F89E494E00E94731B8823F3
:1048A00009F461CE00E0242D4C2F6D2F89E494E0B3
:1048B0000E940D1C01E0232D4C2F6D2F89E494E004
:1048C0000E940D1C6FEF650D232D4C2F89E494E0A1
:1048D0000E940D1C4FEF410F00E0242D6D2F89E445
:1048E00094E00E940D1C3FCEFFDD811132CE81E0AD
:1048F000CDB7DEB7E2E10C94CC3C302E36948D2F50
:10490000DC2FC82F152D212C76CFDC1708F05CCFBB
:10491000302E36948D2FDC2FC82F152D212C5524A9
:104920005A94DF3F09F4DEEFDC1708F41CCE612F48
:104930008C2F222011F06C2F812F0E94771C3418AD
:1049400037FE02C0150D300ECF5FEECFCF93DF9351
:104950008091D2059091D3050097A1F0A4DCC0917D
:10496000D205D091D305209749F088E991E0998349
:104970008883CE0198DCCE010E94893D1092D30538
:104980001092D2058FEF8093D405DF91CF910895D7
:10499000CF93DF93E091D005F091D105309729F1C5
:1049A0004481558170E060E0818592850E94393EA6
:1049B0008091D0059091D105BBDAC091D005D091FE
:1049C000D105209771F089859A850E94893D8E8155
:1049D0009F8197FD03C060E00E947214CE010E9487
:1049E000893D1092D1051092D005DF91CF910895A5
:1049F000CF93DF938091E4059091E5050097A1F0B6
:104A000052DCC091E405D091E505209749F088E992
:104A100091E099838883CE0146DCCE010E94893DD6
:104A20001092E5051092E405DF91CF9108951F9350
:104A3000CF93DF93EDEFE80FE83030F5F0E0E45787
:104A4000FE4FD081DD2301F1909144049D23E1F0DC
:104A5000162FC82F61E00E94721460E08C2F0E9414
:104A6000451461E08C2F0E947214612F8C2F0E94DC
:104A70004514D09580914404D823D093440481E018
:104A8000DF91CF911F91089580E0FACFA5E0B0E0CB
:104A9000ECE4F5E20C94BC3C85E0E6E0F1E0DE01FC
:104AA000119601900D928A95E1F78E010F5F1F4FCD
:104AB0007E0186E0E80EF11CF80181918F01EDEF97
:104AC000E80F90E0E83020F4F0E0E457FE4F9081EA
:104AD00020914404922311F060E0A9DFE016F10672
:104AE00059F7109244048091CB05882339F0109235
:104AF000CA051092C9051EDD1092CB0549DF26DFDD
:104B00008091E3058823C1F08091D8058F3FA1F003
:104B100060E00E94451461E070E080E090E00E9457
:104B2000D31461E08091D8050E9445146AE070E0DA
:104B300080E090E00E94D3141092E3051092E20509
:104B400057DF02E811E060E0F80181918F010E94D7
:104B50007214F1E00C381F07B1F72596E6E00C94CB
:104B6000D83CFF920F931F93CF93DF932091D505ED
:104B70003091D605232BB1F16032A0F5C62FD92F85
:104B8000F82E11E0160F812F0E94E9161092BB0239
:104B90008093BA02181326C08091D5059091D6054E
:104BA000DC01ED91FC910284F385E02D09950197DC
:104BB000C9F40F2D1D2FC00FD12FD11DC017D10744
:104BC000B9F08091D5059091D605DC01ED91FC916D
:104BD0000284F385E02D099597FD04C0F8018193C7
:104BE0008F01ECCF80E0CDB7DEB7E5E00C94D93C87
:104BF00081E0F9CF8F929F92AF92BF92CF92DF92D6
:104C0000EF92FF926C010E9404154B015C01F12CA4
:104C1000E12C81E00E94E9161092BB028093BA0257
:104C20008130D9F065E070E080E090E00E94D3141C
:104C30000E940415681979098A099B09C616D706C6
:104C4000E806F90630F780E0FF90EF90DF90CF9014
:104C5000BF90AF909F908F9008958091D5059091CF
:104C6000D605DC01ED91FC910284F385E02D0995D8
:104C70000197C1F681E0E8CFAFE1B0E0E2E4F6E20F
:104C80000C94B23CD8011C92A091D505B091D605E8
:104C9000109711F410E012C158014901642E772ECB
:104CA000F62E082F14ED180F81E08093B90284E2EC
:104CB0008093B8021092B7021092B602ED91FC9167
:104CC00011970190F081E02D60E0CD010995809170
:104CD000D5059091D605DC01ED91FC910190F08114
:104CE000E02D60E009958091D5059091D605DC0115
:104CF000ED91FC910190F081E02D6FEF099580918D
:104D0000D5059091D60562E0660DDC01ED91FC9130
:104D10000190F081E02D09958091D5059091D605FF
:104D20006EEF6619DC01ED91FC910190F081E02DB0
:104D300009958091D5059091D605DC01ED91FC9106
:104D40000190F081E02D64ED09958091D505909159
:104D5000D605DC01ED91FC910190F081E02D602FF2
:104D600009954F2C572C640C752C711C8091D5051E
:104D70009091D605DC01ED91FC910190F081E02D40
:104D80006414750449F0D2016D912D010995F20169
:104D900031978081180FEACF612F61950995809135
:104DA000D5059091D605DC01ED91FC910190F08143
:104DB000E02D60E009958091D5059091D6050E947F
:104DC0002C18811167CF61E070E080E090E00E94D4
:104DD000D314C6010FDF882309F45CCFFE0131969E
:104DE0003F0186E0DF011D928A95E9F766E0CF0179
:104DF000B8DE882309F44ECF46E050E06CE771E05E
:104E0000C3010E94123E892B09F044CF61E070E09B
:104E100080E090E00E94D314C601ECDE882309F400
:104E200039CF8FE1F30111928A95E9F769E06E0DB0
:104E3000C30197DE182F882309F440C089818111AE
:104E400029CF8A81811126CF8B818F3F09F022CF14
:104E5000EC818EEFD82EDE0EF5E1FD1508F41ACFA9
:104E60009D819E0F09F016CFED1408F413CF8E81AB
:104E7000853D09F00FCF0F5F8F8180130BCFDE01CF
:104E8000169685E09D0155E05E0F851720F44D9143
:104E9000940F8F5FFACFE20FF32FF11D8081980FEF
:104EA00009F0F8CEDD2041F04D2D50E0BE01685FE5
:104EB0007F4FC4010E941F3ED501DC92812F6F9667
:104EC000E0E10C94CE3CAF92BF92CF92DF92EF9292
:104ED0000F931F93CF93DF9300D000D01F92CDB7D5
:104EE000DEB75C0119821A821B821C821D8288EE49
:104EF000C82E83E0D82E94E0E92E8E010B5F1F4F61
:104F00009E012F5F3F4F40E070E060E082E0B4DE42
:104F1000282F882371F08D818430D9F469817A81BA
:104F20008B819C810E94903CF50160837183828318
:104F30009383822F0F900F900F900F900F90DF911F
:104F4000CF911F910F91EF90DF90CF90BF90AF90D6
:104F5000089520E0EECF8F929F92AF92BF92CF92B2
:104F6000DF92EF920F931F93CF93DF93CDB7DEB70E
:104F700060970FB6F894DEBF0FBECDBF4B015A014C
:104F800021E02E871F869E012F5F3F4F4DE0F901E4
:104F900011924A95E9F7188AF50110826C018DE0AB
:104FA000E82E8E01005F1F4F42E0BE01625F7F4F1F
:104FB0008AE462DE182F8823E9F088898823D1F0FB
:104FC00099819923B9F0863040F1913031F50E8105
:104FD000043011F0073009F596E0900F8917E8F0DA
:104FE000402F50E0BE01695F7F4FC4010E941F3E09
:104FF000F5010083812F60960FB6F894DEBF0FBED7
:10500000CDBFDF91CF911F910F91EF90DF90CF90A7
:10501000BF90AF909F908F90089510E0EBCF80915C
:10502000E305882391F042EE55E06BED75E08AEFE1
:1050300090E091DF811103C01092E205089581E0B4
:105040009091E205911101C080E00895AF92BF9266
:10505000CF92DF92EF920F931F93CF93DF93CDB751
:10506000DEB765970FB6F894DEBF0FBECDBF5B010C
:1050700091E09A8B90E39B8B8C8B9E012F5F3F4F2F
:1050800081E1F90111928A95E9F71D8A88EEC82E0F
:1050900083E0D82E91E1E92E8E010B5E1F4F43E095
:1050A000BE016E5E7F4F80E4E7DD882371F09D894D
:1050B0009131D9F49981911118C090E1FE01329695
:1050C000D50101900D929A95E1F765960FB6F89487
:1050D000DEBF0FBECDBFDF91CF911F910F91EF903B
:1050E000DF90CF90BF90AF90089580E0EECF85ED38
:1050F0008093BC008091040390910503A091060366
:10510000B09107030796A11DB11D23E0B695A795A1
:10511000979587952A95D1F72091BC0024FD03C06F
:105120001092020308954091040350910503609189
:10513000060370910703452B462B472B69F3009715
:10514000A105B10541F02AE22A95F1F700C00197C7
:10515000A109B109E1CF809103030C94CB16089506
:105160001F920F920FB60F9211242F933F938F939C
:105170009F93AF93BF938091AA029091AB02A091AD
:10518000AC02B091AD023091A90223E0230F2D377C
:1051900058F50196A11DB11D2093A9028093AA0282
:1051A0009093AB02A093AC02B093AD028091AE029B
:1051B0009091AF02A091B002B091B1020196A11DF1
:1051C000B11D8093AE029093AF02A093B002B09352
:1051D000B102BF91AF919F918F913F912F910F900D
:1051E0000FBE0F901F90189526E8230F0296A11D61
:1051F000B11DD2CF1F920F920FB60F9211242F9391
:105200003F934F935F936F937F938F939F93AF934E
:10521000BF93EF93FF9384E993E00E94E715FF911A
:10522000EF91BF91AF919F918F917F916F915F911E
:105230004F913F912F910F900FBE0F901F90189597
:105240001F920F920FB60F9211242F938F939F935B
:10525000EF93FF93E091A403F091A5038081E09187
:10526000AA03F091AB0382FD1BC090818091AD0336
:105270008F5F8F732091AE03821741F0E091AD03F1
:10528000F0E0EC56FC4F958F8093AD03FF91EF91CA
:105290009F918F912F910F900FBE0F901F90189597
:1052A0008081F4CF1F920F920FB60F9211242F938B
:1052B0003F934F935F936F937F938F939F93AF939E
:1052C000BF93EF93FF938091B900887F803609F4F4
:1052D00049C0E8F5883209F4A6C018F5803109F410
:1052E0009AC0B8F4882309F4F8C0883009F493C050
:1052F000FF91EF91BF91AF919F918F917F916F91AE
:105300005F914F913F912F910F900FBE0F901F9083
:105310001895883109F487C0803251F78093E002F4
:1053200014C0803409F49CC040F48033B9F388334E
:10533000F9F68093E00285ECAFC0803509F484C0B3
:10534000883509F495C0883499F6D1DED1CF8839F3
:1053500009F48CC038F5883729F050F4883611F0FC
:10536000803731F683E0809302031092A80257C081
:10537000883809F47BC0803919F0803809F0B8CF3B
:105380008091A802803208F071C0E091A80281E00B
:105390008E0F8093A8028091BB00F0E0E857FD4F8C
:1053A00080833DC0803B39F0E0F4803A09F479C055
:1053B000883A09F09DCF84E080930203109287021F
:1053C00010928602E091B402F091B50209958091A5
:1053D000860281110FC081E08093860210926602DE
:1053E00009C0803C09F4A7CF883C09F4A4CF883BCE
:1053F00009F07ECFE091870281E08E0F80938702D3
:10540000F0E0EA59FD4F80818093BB0090918702C4
:105410008091860229C08091DD028093BB0085ECDB
:105420008093BC0065CF9091DF028091DE029817D7
:1054300058F5E091DF0281E08E0F8093DF02F0E00B
:10544000E454FD4F8081E9CFE091DF0281E08E0FCF
:105450008093DF028091BB00F0E0E454FD4F808335
:105460009091DF028091DE029817C8F285E8D8CFCC
:10547000E091DF0281E08E0F8093DF028091BB001C
:10548000F0E0E454FD4F80838091E10281115DCF13
:1054900081E08093DC0284EA8093BC0010920203D6
:1054A00027CF85EC8093BC00109202038091A80264
:1054B000803230F4E091A802F0E0E857FD4F10820E
:1054C0006091A80270E0E091B202F091B30288E826
:1054D00092E009951092A8020BCF1092E00235CF0E
:1054E0001F920F920FB60F9211242F933F934F9359
:1054F0005F936F937F938F939F93AF93BF93EF933C
:10550000FF93E0914202F0914302309749F0A68563
:10551000B7858585968D91FF14C09C918923A1F450
:10552000FF91EF91BF91AF919F918F917F916F917B
:105530005F914F913F912F910F900FBE0F901F9051
:1055400018959C91892361F7A389B4899C918589D9
:10555000809589238C93868997890197F1F7608DCF
:10556000718DA685B785558538E020E0CB01019780
:10557000F1F7822F90E095958795282F4C91452340
:1055800009F02068315091F7868D81FD209580913A
:10559000400290E001968F739927309141023817AD
:1055A00099F0A0914002B0E0A050BE4F2C938093A0
:1055B0004002828D938D0197F1F7A389B4898C9174
:1055C0009589892B8C93ACCF868D8160868FF1CFA6
:1055D000CF93DF93EC019A01AB011B8E1A8E198ECB
:1055E000188E1F8A1E8A60E079E08DE390E00E94A9
:1055F000743CF901C90103972430310510F481E0AE
:1056000090E09D8F8C8F8C856EEF680F623068F014
:105610009BEF980F923048F097EF980F923028F058
:1056200092EF980F943008F087C0D901B695A795EE
:10563000A431B10508F465C05397BF8BAE8B369784
:1056400008F462C0F9013597F98FE88FF901EE0F80
:10565000FF1F2E0F3F1F36952795369527952D3026
:10566000310508F454C02C5031093B8F2A8F623029
:1056700070F09BEF980F923050F097EF980F9230A8
:1056800030F092EF980FF0E0E0E0943010F4E8E6AC
:10569000F0E0208194E0883048F031E08E3008F46A
:1056A00030E091E001C0990F3A95EAF7922B623011
:1056B00068F02BEF280F223048F027EF280F223018
:1056C00028F08E50F0E0E0E0843010F4E8E6F0E0FE
:1056D00090839C858EEF890F8230E0F08BEF890FED
:1056E0008230C0F087EF890F2BE630E08230A0F0E7
:1056F00082EF890F30E020E0843070F42CE630E057
:105700000BC0A1E0B0E099CFE1E0F0E09DCF21E057
:1057100030E0ABCF2DE630E03C8B2B8B292F30E0F7
:10572000983080F481E001C0880F9A95EAF78D8B5C
:105730008C8D9D8D0197F1F7CE010E946921DF913B
:10574000CF9108959E3040F42850310981E001C086
:10575000880F2A95EAF7EBCF2E503109F7CFCF9279
:10576000DF92EF920F931F93CF93DF93CDB7DEB706
:105770002F970FB6F894DEBF0FBECDBF31E039834F
:10578000211142C020E62A834B8326E0F801DE0186
:10579000149601900D922A95E1F7262F2450330B91
:1057A000F901E80FF91F84E0DE011A9601900D92CD
:1057B0008A95E1F71F861E8688EEC82E83E0D82ED4
:1057C000EE24E3948E01025F1F4F9E01215F3F4F45
:1057D0004DE0BE016F5F7F4F80E44EDA882331F0E9
:1057E0008E85813011F49F85911180E02F960FB640
:1057F000F894DEBF0FBECDBFDF91CF911F910F9107
:10580000EF90DF90CF90089521E6BDCFCF93DF9347
:10581000E091C905F091CA0520E031E02E1B3F0B55
:1058200026173707B0F0EB01BC01AE01CF0187535B
:105830009B4F0E941F3E6091C9057091CA05C60F1B
:10584000D71FD093CA05C093C90581E0DF91CF91DE
:10585000089580E0FBCFCF93DF93109297031092CF
:10586000960388EE93E0A0E0B0E0809398039093D5
:105870009903A0939A03B0939B032AEA31E03093F3
:1058800095032093940325EC30E03093A1032093FB
:10589000A00324EC30E03093A3032093A20320EC78
:1058A00030E03093A5032093A40321EC30E0309343
:1058B000A7032093A60322EC30E03093A9032093A2
:1058C000A80326EC30E03093AB032093AA03109298
:1058D000AD031092AE031092AF031092B00310927A
:1058E0000B0310920A0380930C0390930D03A09373
:1058F0000E03B0930F038CEB91E090930903809318
:10590000080384E993E09093320480933104109269
:105910003304E4E3F4E087E0DF011D928A95E9F7C0
:1059200010923C0410923B0410923E0410923D04ED
:1059300010923F04109240041092410410924204CD
:1059400010924304109244041092480410924704A9
:105950008DE193E19093C6048093C5041092C7042F
:105960001092C804109262048EEC91E09093460469
:105970008093450410924A041092490410925E04E8
:10598000109261041092550410925604109257041C
:10599000109258048FEF80935F0480936404E8E6CC
:1059A000F4E08EE794E0CFEFC1938E179F07E1F705
:1059B00081E899E190934E0480934D0481E69AE149
:1059C0009093500480934F0485ED9EE19093520490
:1059D0008093510480E195E19093540480935304A3
:1059E00030E020E040E069E089E494E00E94811921
:1059F000109296041092950487E293E190937F04AD
:105A000080937E0484E193E09093830480938204E6
:105A1000D1E0D0938404109285041092A2041092D5
:105A2000C204D093C304D093C40486ED91E0909354
:105A300081048093800489E494E00E94701B10929A
:105A4000910410929304C0939204C0939404E09143
:105A50008004F09181040280F381E02D89E494E0D8
:105A6000099584E893E190939804809397041092A9
:105A7000A504C0937304C0937404C093750480E0BC
:105A800091E0E9ECF4E0DF019C011D9221503040EF
:105A9000E1F71092CA051092C9051092CB05109239
:105AA000D1051092D0051092D3051092D205C09363
:105AB000D4051092D6051092D505C093D705C09392
:105AC000D805C093D905C093DA05EBEDF5E027E0E2
:105AD000DF011D922A95E9F71092E2051092E30585
